{
  "_format": "hh-sol-artifact-1",
  "contractName": "NFTMarketplace",
  "sourceName": "contracts/NFTMarketplace.sol",
  "abi": [
    {
      "inputs": [],
      "stateMutability": "nonpayable",
      "type": "constructor"
    },
    {
      "anonymous": false,
      "inputs": [
        {
          "indexed": true,
          "internalType": "address",
          "name": "owner",
          "type": "address"
        },
        {
          "indexed": true,
          "internalType": "address",
          "name": "approved",
          "type": "address"
        },
        {
          "indexed": true,
          "internalType": "uint256",
          "name": "tokenId",
          "type": "uint256"
        }
      ],
      "name": "Approval",
      "type": "event"
    },
    {
      "anonymous": false,
      "inputs": [
        {
          "indexed": true,
          "internalType": "address",
          "name": "owner",
          "type": "address"
        },
        {
          "indexed": true,
          "internalType": "address",
          "name": "operator",
          "type": "address"
        },
        {
          "indexed": false,
          "internalType": "bool",
          "name": "approved",
          "type": "bool"
        }
      ],
      "name": "ApprovalForAll",
      "type": "event"
    },
    {
      "anonymous": false,
      "inputs": [
        {
          "indexed": false,
          "internalType": "uint256",
          "name": "_fromTokenId",
          "type": "uint256"
        },
        {
          "indexed": false,
          "internalType": "uint256",
          "name": "_toTokenId",
          "type": "uint256"
        }
      ],
      "name": "BatchMetadataUpdate",
      "type": "event"
    },
    {
      "anonymous": false,
      "inputs": [
        {
          "indexed": true,
          "internalType": "uint256",
          "name": "tokenId",
          "type": "uint256"
        },
        {
          "indexed": false,
          "internalType": "address",
          "name": "seller",
          "type": "address"
        },
        {
          "indexed": false,
          "internalType": "address",
          "name": "owner",
          "type": "address"
        },
        {
          "indexed": false,
          "internalType": "uint256",
          "name": "price",
          "type": "uint256"
        },
        {
          "indexed": false,
          "internalType": "bool",
          "name": "sold",
          "type": "bool"
        }
      ],
      "name": "MarketItemCreated",
      "type": "event"
    },
    {
      "anonymous": false,
      "inputs": [
        {
          "indexed": false,
          "internalType": "uint256",
          "name": "_tokenId",
          "type": "uint256"
        }
      ],
      "name": "MetadataUpdate",
      "type": "event"
    },
    {
      "anonymous": false,
      "inputs": [
        {
          "indexed": true,
          "internalType": "address",
          "name": "previousOwner",
          "type": "address"
        },
        {
          "indexed": true,
          "internalType": "address",
          "name": "newOwner",
          "type": "address"
        }
      ],
      "name": "OwnershipTransferred",
      "type": "event"
    },
    {
      "anonymous": false,
      "inputs": [
        {
          "indexed": true,
          "internalType": "address",
          "name": "from",
          "type": "address"
        },
        {
          "indexed": true,
          "internalType": "address",
          "name": "to",
          "type": "address"
        },
        {
          "indexed": true,
          "internalType": "uint256",
          "name": "tokenId",
          "type": "uint256"
        }
      ],
      "name": "Transfer",
      "type": "event"
    },
    {
      "inputs": [
        {
          "internalType": "address",
          "name": "to",
          "type": "address"
        },
        {
          "internalType": "uint256",
          "name": "tokenId",
          "type": "uint256"
        }
      ],
      "name": "approve",
      "outputs": [],
      "stateMutability": "nonpayable",
      "type": "function"
    },
    {
      "inputs": [
        {
          "internalType": "address",
          "name": "owner",
          "type": "address"
        }
      ],
      "name": "balanceOf",
      "outputs": [
        {
          "internalType": "uint256",
          "name": "",
          "type": "uint256"
        }
      ],
      "stateMutability": "view",
      "type": "function"
    },
    {
      "inputs": [
        {
          "internalType": "uint256",
          "name": "tokenId",
          "type": "uint256"
        }
      ],
      "name": "createMarketSale",
      "outputs": [],
      "stateMutability": "payable",
      "type": "function"
    },
    {
      "inputs": [],
      "name": "fetchItemsListed",
      "outputs": [
        {
          "components": [
            {
              "internalType": "uint256",
              "name": "tokenId",
              "type": "uint256"
            },
            {
              "internalType": "address payable",
              "name": "seller",
              "type": "address"
            },
            {
              "internalType": "address payable",
              "name": "owner",
              "type": "address"
            },
            {
              "internalType": "uint256",
              "name": "price",
              "type": "uint256"
            },
            {
              "internalType": "bool",
              "name": "sold",
              "type": "bool"
            }
          ],
          "internalType": "struct NFTMarketplace.MarketItem[]",
          "name": "",
          "type": "tuple[]"
        }
      ],
      "stateMutability": "view",
      "type": "function"
    },
    {
      "inputs": [],
      "name": "fetchMarketItems",
      "outputs": [
        {
          "components": [
            {
              "internalType": "uint256",
              "name": "tokenId",
              "type": "uint256"
            },
            {
              "internalType": "address payable",
              "name": "seller",
              "type": "address"
            },
            {
              "internalType": "address payable",
              "name": "owner",
              "type": "address"
            },
            {
              "internalType": "uint256",
              "name": "price",
              "type": "uint256"
            },
            {
              "internalType": "bool",
              "name": "sold",
              "type": "bool"
            }
          ],
          "internalType": "struct NFTMarketplace.MarketItem[]",
          "name": "",
          "type": "tuple[]"
        }
      ],
      "stateMutability": "view",
      "type": "function"
    },
    {
      "inputs": [],
      "name": "fetchMyNFTs",
      "outputs": [
        {
          "components": [
            {
              "internalType": "uint256",
              "name": "tokenId",
              "type": "uint256"
            },
            {
              "internalType": "address payable",
              "name": "seller",
              "type": "address"
            },
            {
              "internalType": "address payable",
              "name": "owner",
              "type": "address"
            },
            {
              "internalType": "uint256",
              "name": "price",
              "type": "uint256"
            },
            {
              "internalType": "bool",
              "name": "sold",
              "type": "bool"
            }
          ],
          "internalType": "struct NFTMarketplace.MarketItem[]",
          "name": "",
          "type": "tuple[]"
        }
      ],
      "stateMutability": "view",
      "type": "function"
    },
    {
      "inputs": [
        {
          "internalType": "uint256",
          "name": "tokenId",
          "type": "uint256"
        }
      ],
      "name": "getApproved",
      "outputs": [
        {
          "internalType": "address",
          "name": "",
          "type": "address"
        }
      ],
      "stateMutability": "view",
      "type": "function"
    },
    {
      "inputs": [
        {
          "internalType": "address",
          "name": "owner",
          "type": "address"
        },
        {
          "internalType": "address",
          "name": "operator",
          "type": "address"
        }
      ],
      "name": "isApprovedForAll",
      "outputs": [
        {
          "internalType": "bool",
          "name": "",
          "type": "bool"
        }
      ],
      "stateMutability": "view",
      "type": "function"
    },
    {
      "inputs": [
        {
          "internalType": "uint256",
          "name": "tokenId",
          "type": "uint256"
        },
        {
          "internalType": "uint256",
          "name": "price",
          "type": "uint256"
        }
      ],
      "name": "listNFT",
      "outputs": [],
      "stateMutability": "payable",
      "type": "function"
    },
    {
      "inputs": [],
      "name": "listingPrice",
      "outputs": [
        {
          "internalType": "uint256",
          "name": "",
          "type": "uint256"
        }
      ],
      "stateMutability": "view",
      "type": "function"
    },
    {
      "inputs": [
        {
          "internalType": "string",
          "name": "tokenURI",
          "type": "string"
        }
      ],
      "name": "mintNFT",
      "outputs": [
        {
          "internalType": "uint256",
          "name": "",
          "type": "uint256"
        }
      ],
      "stateMutability": "nonpayable",
      "type": "function"
    },
    {
      "inputs": [],
      "name": "name",
      "outputs": [
        {
          "internalType": "string",
          "name": "",
          "type": "string"
        }
      ],
      "stateMutability": "view",
      "type": "function"
    },
    {
      "inputs": [],
      "name": "owner",
      "outputs": [
        {
          "internalType": "address",
          "name": "",
          "type": "address"
        }
      ],
      "stateMutability": "view",
      "type": "function"
    },
    {
      "inputs": [
        {
          "internalType": "uint256",
          "name": "tokenId",
          "type": "uint256"
        }
      ],
      "name": "ownerOf",
      "outputs": [
        {
          "internalType": "address",
          "name": "",
          "type": "address"
        }
      ],
      "stateMutability": "view",
      "type": "function"
    },
    {
      "inputs": [],
      "name": "renounceMarketplaceOwnership",
      "outputs": [],
      "stateMutability": "nonpayable",
      "type": "function"
    },
    {
      "inputs": [],
      "name": "renounceOwnership",
      "outputs": [],
      "stateMutability": "nonpayable",
      "type": "function"
    },
    {
      "inputs": [
        {
          "internalType": "uint256",
          "name": "tokenId",
          "type": "uint256"
        },
        {
          "internalType": "uint256",
          "name": "price",
          "type": "uint256"
        }
      ],
      "name": "resellToken",
      "outputs": [],
      "stateMutability": "payable",
      "type": "function"
    },
    {
      "inputs": [
        {
          "internalType": "address",
          "name": "from",
          "type": "address"
        },
        {
          "internalType": "address",
          "name": "to",
          "type": "address"
        },
        {
          "internalType": "uint256",
          "name": "tokenId",
          "type": "uint256"
        }
      ],
      "name": "safeTransferFrom",
      "outputs": [],
      "stateMutability": "nonpayable",
      "type": "function"
    },
    {
      "inputs": [
        {
          "internalType": "address",
          "name": "from",
          "type": "address"
        },
        {
          "internalType": "address",
          "name": "to",
          "type": "address"
        },
        {
          "internalType": "uint256",
          "name": "tokenId",
          "type": "uint256"
        },
        {
          "internalType": "bytes",
          "name": "data",
          "type": "bytes"
        }
      ],
      "name": "safeTransferFrom",
      "outputs": [],
      "stateMutability": "nonpayable",
      "type": "function"
    },
    {
      "inputs": [
        {
          "internalType": "address",
          "name": "operator",
          "type": "address"
        },
        {
          "internalType": "bool",
          "name": "approved",
          "type": "bool"
        }
      ],
      "name": "setApprovalForAll",
      "outputs": [],
      "stateMutability": "nonpayable",
      "type": "function"
    },
    {
      "inputs": [
        {
          "internalType": "bytes4",
          "name": "interfaceId",
          "type": "bytes4"
        }
      ],
      "name": "supportsInterface",
      "outputs": [
        {
          "internalType": "bool",
          "name": "",
          "type": "bool"
        }
      ],
      "stateMutability": "view",
      "type": "function"
    },
    {
      "inputs": [],
      "name": "symbol",
      "outputs": [
        {
          "internalType": "string",
          "name": "",
          "type": "string"
        }
      ],
      "stateMutability": "view",
      "type": "function"
    },
    {
      "inputs": [
        {
          "internalType": "uint256",
          "name": "tokenId",
          "type": "uint256"
        }
      ],
      "name": "tokenURI",
      "outputs": [
        {
          "internalType": "string",
          "name": "",
          "type": "string"
        }
      ],
      "stateMutability": "view",
      "type": "function"
    },
    {
      "inputs": [
        {
          "internalType": "address",
          "name": "from",
          "type": "address"
        },
        {
          "internalType": "address",
          "name": "to",
          "type": "address"
        },
        {
          "internalType": "uint256",
          "name": "tokenId",
          "type": "uint256"
        }
      ],
      "name": "transferFrom",
      "outputs": [],
      "stateMutability": "nonpayable",
      "type": "function"
    },
    {
      "inputs": [
        {
          "internalType": "address",
          "name": "newOwner",
          "type": "address"
        }
      ],
      "name": "transferMarketplaceOwnership",
      "outputs": [],
      "stateMutability": "nonpayable",
      "type": "function"
    },
    {
      "inputs": [
        {
          "internalType": "address",
          "name": "newOwner",
          "type": "address"
        }
      ],
      "name": "transferOwnership",
      "outputs": [],
      "stateMutability": "nonpayable",
      "type": "function"
    },
    {
      "inputs": [
        {
          "internalType": "uint256",
          "name": "_listingPrice",
          "type": "uint256"
        }
      ],
      "name": "updateListingPrice",
      "outputs": [],
      "stateMutability": "nonpayable",
      "type": "function"
    }
  ],
  "bytecode": "0x60806040526658d15e17628000600b553480156200001c57600080fd5b506040518060400160405280601081526020016f4d657461766572736520546f6b656e7360801b815250604051806040016040528060048152602001631351551560e21b815250816000908162000074919062000195565b50600162000083828262000195565b505060016007555062000096336200009c565b62000261565b600880546001600160a01b038381166001600160a01b0319831681179093556040519116919082907f8be0079c531659141344cd1fd0a4f28419497f9722a3daafe3b4186f6b6457e090600090a35050565b634e487b7160e01b600052604160045260246000fd5b600181811c908216806200011957607f821691505b6020821081036200013a57634e487b7160e01b600052602260045260246000fd5b50919050565b601f82111562000190576000816000526020600020601f850160051c810160208610156200016b5750805b601f850160051c820191505b818110156200018c5782815560010162000177565b5050505b505050565b81516001600160401b03811115620001b157620001b1620000ee565b620001c981620001c2845462000104565b8462000140565b602080601f831160018114620002015760008415620001e85750858301515b600019600386901b1c1916600185901b1785556200018c565b600085815260208120601f198616915b82811015620002325788860151825594840194600190910190840162000211565b5085821015620002515787850151600019600388901b60f8161c191681555b5050505050600190811b01905550565b61257f80620002716000396000f3fe60806040526004361061019c5760003560e01c8063715018a6116100ec578063be9af5361161008a578063e219fc7511610064578063e219fc7514610465578063e985e9c514610478578063f2fde38b14610498578063fb37e883146104b857600080fd5b8063be9af5361461041c578063c78f19f91461042f578063c87b56dd1461044557600080fd5b806395d89b41116100c657806395d89b41146103a7578063a22cb465146103bc578063ae677aa3146103dc578063b88d4fde146103fc57600080fd5b8063715018a6146103615780638da5cb5b1461037657806394383f141461039457600080fd5b8063202e37401161015957806345f8fa801161013357806345f8fa80146102e95780636352211e146102fe578063661bd0891461031e57806370a082311461033357600080fd5b8063202e37401461029457806323b872dd146102a957806342842e0e146102c957600080fd5b806301ffc9a7146101a157806306fdde03146101d6578063081812fc146101f8578063095ea7b3146102305780630f08efe0146102525780631206dc5f14610274575b600080fd5b3480156101ad57600080fd5b506101c16101bc366004611ea6565b6104d8565b60405190151581526020015b60405180910390f35b3480156101e257600080fd5b506101eb610503565b6040516101cd9190611f13565b34801561020457600080fd5b50610218610213366004611f26565b610595565b6040516001600160a01b0390911681526020016101cd565b34801561023c57600080fd5b5061025061024b366004611f5b565b6105bc565b005b34801561025e57600080fd5b506102676106d6565b6040516101cd9190611f85565b34801561028057600080fd5b5061025061028f366004612001565b610848565b3480156102a057600080fd5b5061026761085c565b3480156102b557600080fd5b506102506102c436600461201c565b6109fe565b3480156102d557600080fd5b506102506102e436600461201c565b610a2f565b3480156102f557600080fd5b50610267610a4a565b34801561030a57600080fd5b50610218610319366004611f26565b610bec565b34801561032a57600080fd5b50610250610c4c565b34801561033f57600080fd5b5061035361034e366004612001565b610c5e565b6040519081526020016101cd565b34801561036d57600080fd5b50610250610ce4565b34801561038257600080fd5b506008546001600160a01b0316610218565b6102506103a2366004612058565b610cf6565b3480156103b357600080fd5b506101eb610ee9565b3480156103c857600080fd5b506102506103d736600461207a565b610ef8565b3480156103e857600080fd5b506102506103f7366004611f26565b610f03565b34801561040857600080fd5b50610250610417366004612142565b610f10565b61025061042a366004611f26565b610f48565b34801561043b57600080fd5b50610353600b5481565b34801561045157600080fd5b506101eb610460366004611f26565b6110ce565b610250610473366004612058565b6111de565b34801561048457600080fd5b506101c16104933660046121be565b611349565b3480156104a457600080fd5b506102506104b3366004612001565b611377565b3480156104c457600080fd5b506103536104d33660046121f1565b6113ed565b60006001600160e01b03198216632483248360e11b14806104fd57506104fd8261141e565b92915050565b6060600080546105129061223a565b80601f016020809104026020016040519081016040528092919081815260200182805461053e9061223a565b801561058b5780601f106105605761010080835404028352916020019161058b565b820191906000526020600020905b81548152906001019060200180831161056e57829003601f168201915b5050505050905090565b60006105a08261146e565b506000908152600460205260409020546001600160a01b031690565b60006105c782610bec565b9050806001600160a01b0316836001600160a01b0316036106395760405162461bcd60e51b815260206004820152602160248201527f4552433732313a20617070726f76616c20746f2063757272656e74206f776e656044820152603960f91b60648201526084015b60405180910390fd5b336001600160a01b038216148061065557506106558133611349565b6106c75760405162461bcd60e51b815260206004820152603d60248201527f4552433732313a20617070726f76652063616c6c6572206973206e6f7420746f60448201527f6b656e206f776e6572206f7220617070726f76656420666f7220616c6c0000006064820152608401610630565b6106d183836114cd565b505050565b606060006106e360095490565b905060006106f0600a5490565b6106fa908361228a565b90506000808267ffffffffffffffff811115610718576107186120b6565b60405190808252806020026020018201604052801561077157816020015b6040805160a0810182526000808252602080830182905292820181905260608201819052608082015282526000199092019101816107365790505b50905060015b84811161083f576000818152600c6020526040902060020154306001600160a01b039091160361082d576000818152600c6020908152604091829020825160a0810184528154815260018201546001600160a01b03908116938201939093526002820154909216928201929092526003820154606082015260049091015460ff161515608082015282518390859081106108135761081361229d565b60200260200101819052508280610829906122b3565b9350505b80610837816122b3565b915050610777565b50949350505050565b61085061153b565b61085981611377565b50565b6060600061086960095490565b905060008060015b8381116108bb576000818152600c6020526040902060020154336001600160a01b03909116036108a957826108a5816122b3565b9350505b806108b3816122b3565b915050610871565b5060008267ffffffffffffffff8111156108d7576108d76120b6565b60405190808252806020026020018201604052801561093057816020015b6040805160a0810182526000808252602080830182905292820181905260608201819052608082015282526000199092019101816108f55790505b50905060015b84811161083f576000818152600c6020526040902060020154336001600160a01b03909116036109ec576000818152600c6020908152604091829020825160a0810184528154815260018201546001600160a01b03908116938201939093526002820154909216928201929092526003820154606082015260049091015460ff161515608082015282518390859081106109d2576109d261229d565b602002602001018190525082806109e8906122b3565b9350505b806109f6816122b3565b915050610936565b610a083382611595565b610a245760405162461bcd60e51b8152600401610630906122cc565b6106d18383836115f3565b6106d183838360405180602001604052806000815250610f10565b60606000610a5760095490565b905060008060015b838111610aa9576000818152600c6020526040902060010154336001600160a01b0390911603610a975782610a93816122b3565b9350505b80610aa1816122b3565b915050610a5f565b5060008267ffffffffffffffff811115610ac557610ac56120b6565b604051908082528060200260200182016040528015610b1e57816020015b6040805160a081018252600080825260208083018290529282018190526060820181905260808201528252600019909201910181610ae35790505b50905060015b84811161083f576000818152600c6020526040902060010154336001600160a01b0390911603610bda576000818152600c6020908152604091829020825160a0810184528154815260018201546001600160a01b03908116938201939093526002820154909216928201929092526003820154606082015260049091015460ff16151560808201528251839085908110610bc057610bc061229d565b60200260200101819052508280610bd6906122b3565b9350505b80610be4816122b3565b915050610b24565b6000818152600260205260408120546001600160a01b0316806104fd5760405162461bcd60e51b8152602060048201526018602482015277115490cdcc8c4e881a5b9d985b1a59081d1bdad95b88125160421b6044820152606401610630565b610c5461153b565b610c5c610ce4565b565b60006001600160a01b038216610cc85760405162461bcd60e51b815260206004820152602960248201527f4552433732313a2061646472657373207a65726f206973206e6f7420612076616044820152683634b21037bbb732b960b91b6064820152608401610630565b506001600160a01b031660009081526003602052604090205490565b610cec61153b565b610c5c6000611757565b610cfe6117a9565b33610d0883610bec565b6001600160a01b031614610d5e5760405162461bcd60e51b815260206004820152601f60248201527f596f75206d757374206f776e20746865204e465420746f206c697374206974006044820152606401610630565b60008111610dae5760405162461bcd60e51b815260206004820152601f60248201527f5072696365206d7573742062652067726561746572207468616e207a65726f006044820152606401610630565b600b543414610dfa5760405162461bcd60e51b81526020600482015260186024820152774d7573742070617920746865206c697374696e672066656560401b6044820152606401610630565b6040805160a08101825283815233602080830182815230848601818152606086018881526000608088018181528b8252600c909652979097209551865591516001860180546001600160a01b03199081166001600160a01b0393841617909155925160028701805490941691161790915593516003840155516004909201805460ff191692151592909217909155610e9291846115f3565b604080513381523060208201529081018290526000606082015282907fb640004f1d14576d0c209e240cad0410e0d8c0c33a09375861fbadae2588a98d9060800160405180910390a2610ee56001600755565b5050565b6060600180546105129061223a565b610ee5338383611802565b610f0b61153b565b600b55565b610f1a3383611595565b610f365760405162461bcd60e51b8152600401610630906122cc565b610f42848484846118d0565b50505050565b610f506117a9565b6000818152600c6020526040902060038101543414610fb15760405162461bcd60e51b815260206004820152601860248201527f4d757374207061792074686520657861637420707269636500000000000000006044820152606401610630565b600481015460ff1615610ffa5760405162461bcd60e51b8152602060048201526011602482015270125d195b48185b1c9958591e481cdbdb19607a1b6044820152606401610630565b600180820180546002840180546001600160a01b0319908116331790915560048501805460ff191690941790935591821690556001600160a01b0316611044600a80546001019055565b61104f3033856115f3565b600854600b546040516001600160a01b039092169181156108fc0291906000818181858888f1935050505015801561108b573d6000803e3d6000fd5b506040516001600160a01b038216903480156108fc02916000818181858888f193505050501580156110c1573d6000803e3d6000fd5b5050506108596001600755565b60606110d98261146e565b600082815260066020526040812080546110f29061223a565b80601f016020809104026020016040519081016040528092919081815260200182805461111e9061223a565b801561116b5780601f106111405761010080835404028352916020019161116b565b820191906000526020600020905b81548152906001019060200180831161114e57829003601f168201915b50505050509050600061118960408051602081019091526000815290565b9050805160000361119b575092915050565b8151156111cd5780826040516020016111b5929190612319565b60405160208183030381529060405292505050919050565b6111d684611903565b949350505050565b6111e66117a9565b336111f083610bec565b6001600160a01b0316146112505760405162461bcd60e51b815260206004820152602160248201527f596f75206d757374206f776e20746865204e465420746f20726573656c6c20696044820152601d60fa1b6064820152608401610630565b600b54341461129c5760405162461bcd60e51b81526020600482015260186024820152774d7573742070617920746865206c697374696e672066656560401b6044820152606401610630565b6040805160a0810182528381523360208083019182523083850190815260608401868152600060808601818152898252600c909452959095209351845591516001840180546001600160a01b03199081166001600160a01b039384161790915592516002850180549094169116179091559151600382015590516004909101805460ff1916911515919091179055611334600a611977565b61133f3330846115f3565b610ee56001600755565b6001600160a01b03918216600090815260056020908152604080832093909416825291909152205460ff1690565b61137f61153b565b6001600160a01b0381166113e45760405162461bcd60e51b815260206004820152602660248201527f4f776e61626c653a206e6577206f776e657220697320746865207a65726f206160448201526564647265737360d01b6064820152608401610630565b61085981611757565b60006113fd600980546001019055565b600061140860095490565b905061141433826119ce565b6104fd8184611b59565b60006001600160e01b031982166380ac58cd60e01b148061144f57506001600160e01b03198216635b5e139f60e01b145b806104fd57506301ffc9a760e01b6001600160e01b03198316146104fd565b6000818152600260205260409020546001600160a01b03166108595760405162461bcd60e51b8152602060048201526018602482015277115490cdcc8c4e881a5b9d985b1a59081d1bdad95b88125160421b6044820152606401610630565b600081815260046020526040902080546001600160a01b0319166001600160a01b038416908117909155819061150282610bec565b6001600160a01b03167f8c5be1e5ebec7d5bd14f71427d1e84f3dd0314c0f7b2291e5b200ac8c7c3b92560405160405180910390a45050565b6008546001600160a01b03163314610c5c5760405162461bcd60e51b815260206004820181905260248201527f4f776e61626c653a2063616c6c6572206973206e6f7420746865206f776e65726044820152606401610630565b6000806115a183610bec565b9050806001600160a01b0316846001600160a01b031614806115c857506115c88185611349565b806111d65750836001600160a01b03166115e184610595565b6001600160a01b031614949350505050565b826001600160a01b031661160682610bec565b6001600160a01b03161461162c5760405162461bcd60e51b815260040161063090612348565b6001600160a01b03821661168e5760405162461bcd60e51b8152602060048201526024808201527f4552433732313a207472616e7366657220746f20746865207a65726f206164646044820152637265737360e01b6064820152608401610630565b826001600160a01b03166116a182610bec565b6001600160a01b0316146116c75760405162461bcd60e51b815260040161063090612348565b600081815260046020908152604080832080546001600160a01b03199081169091556001600160a01b0387811680865260038552838620805460001901905590871680865283862080546001019055868652600290945282852080549092168417909155905184937fddf252ad1be2c89b69c2b068fc378daa952ba7f163c4a11628f55a4df523b3ef91a4505050565b600880546001600160a01b038381166001600160a01b0319831681179093556040519116919082907f8be0079c531659141344cd1fd0a4f28419497f9722a3daafe3b4186f6b6457e090600090a35050565b6002600754036117fb5760405162461bcd60e51b815260206004820152601f60248201527f5265656e7472616e637947756172643a207265656e7472616e742063616c6c006044820152606401610630565b6002600755565b816001600160a01b0316836001600160a01b0316036118635760405162461bcd60e51b815260206004820152601960248201527f4552433732313a20617070726f766520746f2063616c6c6572000000000000006044820152606401610630565b6001600160a01b03838116600081815260056020908152604080832094871680845294825291829020805460ff191686151590811790915591519182527f17307eab39ab6107e8899845ad3d59bd9653f200f220920489ca2b5937696c31910160405180910390a3505050565b6118db8484846115f3565b6118e784848484611c24565b610f425760405162461bcd60e51b81526004016106309061238d565b606061190e8261146e565b600061192560408051602081019091526000815290565b905060008151116119455760405180602001604052806000815250611970565b8061194f84611d25565b604051602001611960929190612319565b6040516020818303038152906040525b9392505050565b8054806119c65760405162461bcd60e51b815260206004820152601b60248201527f436f756e7465723a2064656372656d656e74206f766572666c6f7700000000006044820152606401610630565b600019019055565b6001600160a01b038216611a245760405162461bcd60e51b815260206004820181905260248201527f4552433732313a206d696e7420746f20746865207a65726f20616464726573736044820152606401610630565b6000818152600260205260409020546001600160a01b031615611a895760405162461bcd60e51b815260206004820152601c60248201527f4552433732313a20746f6b656e20616c7265616479206d696e746564000000006044820152606401610630565b6000818152600260205260409020546001600160a01b031615611aee5760405162461bcd60e51b815260206004820152601c60248201527f4552433732313a20746f6b656e20616c7265616479206d696e746564000000006044820152606401610630565b6001600160a01b038216600081815260036020908152604080832080546001019055848352600290915280822080546001600160a01b0319168417905551839291907fddf252ad1be2c89b69c2b068fc378daa952ba7f163c4a11628f55a4df523b3ef908290a45050565b6000828152600260205260409020546001600160a01b0316611bd45760405162461bcd60e51b815260206004820152602e60248201527f45524337323155524953746f726167653a2055524920736574206f66206e6f6e60448201526d32bc34b9ba32b73a103a37b5b2b760911b6064820152608401610630565b6000828152600660205260409020611bec828261242f565b506040518281527ff8e1a15aba9398e019f0b49df1a4fde98ee17ae345cb5f6b5e2c27f5033e8ce79060200160405180910390a15050565b60006001600160a01b0384163b15611d1a57604051630a85bd0160e11b81526001600160a01b0385169063150b7a0290611c689033908990889088906004016124ef565b6020604051808303816000875af1925050508015611ca3575060408051601f3d908101601f19168201909252611ca09181019061252c565b60015b611d00573d808015611cd1576040519150601f19603f3d011682016040523d82523d6000602084013e611cd6565b606091505b508051600003611cf85760405162461bcd60e51b81526004016106309061238d565b805181602001fd5b6001600160e01b031916630a85bd0160e11b1490506111d6565b506001949350505050565b60606000611d3283611db8565b600101905060008167ffffffffffffffff811115611d5257611d526120b6565b6040519080825280601f01601f191660200182016040528015611d7c576020820181803683370190505b5090508181016020015b600019016f181899199a1a9b1b9c1cb0b131b232b360811b600a86061a8153600a8504945084611d8657509392505050565b60008072184f03e93ff9f4daa797ed6e38ed64bf6a1f0160401b8310611df75772184f03e93ff9f4daa797ed6e38ed64bf6a1f0160401b830492506040015b6d04ee2d6d415b85acef81000000008310611e23576d04ee2d6d415b85acef8100000000830492506020015b662386f26fc100008310611e4157662386f26fc10000830492506010015b6305f5e1008310611e59576305f5e100830492506008015b6127108310611e6d57612710830492506004015b60648310611e7f576064830492506002015b600a83106104fd5760010192915050565b6001600160e01b03198116811461085957600080fd5b600060208284031215611eb857600080fd5b813561197081611e90565b60005b83811015611ede578181015183820152602001611ec6565b50506000910152565b60008151808452611eff816020860160208601611ec3565b601f01601f19169290920160200192915050565b6020815260006119706020830184611ee7565b600060208284031215611f3857600080fd5b5035919050565b80356001600160a01b0381168114611f5657600080fd5b919050565b60008060408385031215611f6e57600080fd5b611f7783611f3f565b946020939093013593505050565b602080825282518282018190526000919060409081850190868401855b82811015611ff457815180518552868101516001600160a01b03908116888701528682015116868601526060808201519086015260809081015115159085015260a09093019290850190600101611fa2565b5091979650505050505050565b60006020828403121561201357600080fd5b61197082611f3f565b60008060006060848603121561203157600080fd5b61203a84611f3f565b925061204860208501611f3f565b9150604084013590509250925092565b6000806040838503121561206b57600080fd5b50508035926020909101359150565b6000806040838503121561208d57600080fd5b61209683611f3f565b9150602083013580151581146120ab57600080fd5b809150509250929050565b634e487b7160e01b600052604160045260246000fd5b600067ffffffffffffffff808411156120e7576120e76120b6565b604051601f8501601f19908116603f0116810190828211818310171561210f5761210f6120b6565b8160405280935085815286868601111561212857600080fd5b858560208301376000602087830101525050509392505050565b6000806000806080858703121561215857600080fd5b61216185611f3f565b935061216f60208601611f3f565b925060408501359150606085013567ffffffffffffffff81111561219257600080fd5b8501601f810187136121a357600080fd5b6121b2878235602084016120cc565b91505092959194509250565b600080604083850312156121d157600080fd5b6121da83611f3f565b91506121e860208401611f3f565b90509250929050565b60006020828403121561220357600080fd5b813567ffffffffffffffff81111561221a57600080fd5b8201601f8101841361222b57600080fd5b6111d6848235602084016120cc565b600181811c9082168061224e57607f821691505b60208210810361226e57634e487b7160e01b600052602260045260246000fd5b50919050565b634e487b7160e01b600052601160045260246000fd5b818103818111156104fd576104fd612274565b634e487b7160e01b600052603260045260246000fd5b6000600182016122c5576122c5612274565b5060010190565b6020808252602d908201527f4552433732313a2063616c6c6572206973206e6f7420746f6b656e206f776e6560408201526c1c881bdc88185c1c1c9bdd9959609a1b606082015260800190565b6000835161232b818460208801611ec3565b83519083019061233f818360208801611ec3565b01949350505050565b60208082526025908201527f4552433732313a207472616e736665722066726f6d20696e636f72726563742060408201526437bbb732b960d91b606082015260800190565b60208082526032908201527f4552433732313a207472616e7366657220746f206e6f6e20455243373231526560408201527131b2b4bb32b91034b6b83632b6b2b73a32b960711b606082015260800190565b601f8211156106d1576000816000526020600020601f850160051c810160208610156124085750805b601f850160051c820191505b8181101561242757828155600101612414565b505050505050565b815167ffffffffffffffff811115612449576124496120b6565b61245d81612457845461223a565b846123df565b602080601f831160018114612492576000841561247a5750858301515b600019600386901b1c1916600185901b178555612427565b600085815260208120601f198616915b828110156124c1578886015182559484019460019091019084016124a2565b50858210156124df5787850151600019600388901b60f8161c191681555b5050505050600190811b01905550565b6001600160a01b038581168252841660208201526040810183905260806060820181905260009061252290830184611ee7565b9695505050505050565b60006020828403121561253e57600080fd5b815161197081611e9056fea2646970667358221220417e46fa316f2bafa55b4833a183999ceeae044bdb5d00693ed4abad2f9eb64164736f6c63430008180033",
  "linkReferences": {},
  "deployedLinkReferences": {}
}