{
  "_format": "hh-sol-artifact-1",
  "contractName": "NFTMarketplace",
  "sourceName": "contracts/NFTMarketplace.sol",
  "abi": [
    {
      "inputs": [],
      "stateMutability": "nonpayable",
      "type": "constructor"
    },
    {
      "anonymous": false,
      "inputs": [
        {
          "indexed": true,
          "internalType": "address",
          "name": "owner",
          "type": "address"
        },
        {
          "indexed": true,
          "internalType": "address",
          "name": "approved",
          "type": "address"
        },
        {
          "indexed": true,
          "internalType": "uint256",
          "name": "tokenId",
          "type": "uint256"
        }
      ],
      "name": "Approval",
      "type": "event"
    },
    {
      "anonymous": false,
      "inputs": [
        {
          "indexed": true,
          "internalType": "address",
          "name": "owner",
          "type": "address"
        },
        {
          "indexed": true,
          "internalType": "address",
          "name": "operator",
          "type": "address"
        },
        {
          "indexed": false,
          "internalType": "bool",
          "name": "approved",
          "type": "bool"
        }
      ],
      "name": "ApprovalForAll",
      "type": "event"
    },
    {
      "anonymous": false,
      "inputs": [
        {
          "indexed": false,
          "internalType": "uint256",
          "name": "_fromTokenId",
          "type": "uint256"
        },
        {
          "indexed": false,
          "internalType": "uint256",
          "name": "_toTokenId",
          "type": "uint256"
        }
      ],
      "name": "BatchMetadataUpdate",
      "type": "event"
    },
    {
      "anonymous": false,
      "inputs": [
        {
          "indexed": true,
          "internalType": "uint256",
          "name": "tokenId",
          "type": "uint256"
        },
        {
          "indexed": true,
          "internalType": "address",
          "name": "seller",
          "type": "address"
        }
      ],
      "name": "ListingCancelled",
      "type": "event"
    },
    {
      "anonymous": false,
      "inputs": [
        {
          "indexed": true,
          "internalType": "uint256",
          "name": "tokenId",
          "type": "uint256"
        },
        {
          "indexed": false,
          "internalType": "uint256",
          "name": "newPrice",
          "type": "uint256"
        }
      ],
      "name": "ListingUpdated",
      "type": "event"
    },
    {
      "anonymous": false,
      "inputs": [
        {
          "indexed": true,
          "internalType": "uint256",
          "name": "tokenId",
          "type": "uint256"
        },
        {
          "indexed": true,
          "internalType": "address",
          "name": "seller",
          "type": "address"
        },
        {
          "indexed": true,
          "internalType": "address",
          "name": "owner",
          "type": "address"
        },
        {
          "indexed": false,
          "internalType": "uint256",
          "name": "price",
          "type": "uint256"
        },
        {
          "indexed": false,
          "internalType": "bool",
          "name": "sold",
          "type": "bool"
        }
      ],
      "name": "MarketItemCreated",
      "type": "event"
    },
    {
      "anonymous": false,
      "inputs": [
        {
          "indexed": true,
          "internalType": "uint256",
          "name": "tokenId",
          "type": "uint256"
        },
        {
          "indexed": true,
          "internalType": "address",
          "name": "seller",
          "type": "address"
        },
        {
          "indexed": false,
          "internalType": "uint256",
          "name": "price",
          "type": "uint256"
        }
      ],
      "name": "MarketItemRelisted",
      "type": "event"
    },
    {
      "anonymous": false,
      "inputs": [
        {
          "indexed": true,
          "internalType": "uint256",
          "name": "tokenId",
          "type": "uint256"
        },
        {
          "indexed": true,
          "internalType": "address",
          "name": "buyer",
          "type": "address"
        },
        {
          "indexed": false,
          "internalType": "uint256",
          "name": "price",
          "type": "uint256"
        }
      ],
      "name": "MarketItemSold",
      "type": "event"
    },
    {
      "anonymous": false,
      "inputs": [
        {
          "indexed": false,
          "internalType": "uint256",
          "name": "_tokenId",
          "type": "uint256"
        }
      ],
      "name": "MetadataUpdate",
      "type": "event"
    },
    {
      "anonymous": false,
      "inputs": [
        {
          "indexed": true,
          "internalType": "address",
          "name": "previousOwner",
          "type": "address"
        },
        {
          "indexed": true,
          "internalType": "address",
          "name": "newOwner",
          "type": "address"
        }
      ],
      "name": "OwnershipTransferred",
      "type": "event"
    },
    {
      "anonymous": false,
      "inputs": [
        {
          "indexed": true,
          "internalType": "address",
          "name": "from",
          "type": "address"
        },
        {
          "indexed": true,
          "internalType": "address",
          "name": "to",
          "type": "address"
        },
        {
          "indexed": true,
          "internalType": "uint256",
          "name": "tokenId",
          "type": "uint256"
        }
      ],
      "name": "Transfer",
      "type": "event"
    },
    {
      "inputs": [
        {
          "internalType": "address",
          "name": "to",
          "type": "address"
        },
        {
          "internalType": "uint256",
          "name": "tokenId",
          "type": "uint256"
        }
      ],
      "name": "approve",
      "outputs": [],
      "stateMutability": "nonpayable",
      "type": "function"
    },
    {
      "inputs": [
        {
          "internalType": "address",
          "name": "owner",
          "type": "address"
        }
      ],
      "name": "balanceOf",
      "outputs": [
        {
          "internalType": "uint256",
          "name": "",
          "type": "uint256"
        }
      ],
      "stateMutability": "view",
      "type": "function"
    },
    {
      "inputs": [
        {
          "internalType": "uint256",
          "name": "tokenId",
          "type": "uint256"
        }
      ],
      "name": "createMarketSale",
      "outputs": [],
      "stateMutability": "payable",
      "type": "function"
    },
    {
      "inputs": [],
      "name": "fetchItemsListed",
      "outputs": [
        {
          "internalType": "uint256[]",
          "name": "",
          "type": "uint256[]"
        }
      ],
      "stateMutability": "view",
      "type": "function"
    },
    {
      "inputs": [
        {
          "internalType": "uint256",
          "name": "limit",
          "type": "uint256"
        },
        {
          "internalType": "uint256",
          "name": "offset",
          "type": "uint256"
        }
      ],
      "name": "fetchMarketItems",
      "outputs": [
        {
          "components": [
            {
              "internalType": "uint256",
              "name": "tokenId",
              "type": "uint256"
            },
            {
              "internalType": "address payable",
              "name": "seller",
              "type": "address"
            },
            {
              "internalType": "address",
              "name": "owner",
              "type": "address"
            },
            {
              "internalType": "uint256",
              "name": "price",
              "type": "uint256"
            },
            {
              "internalType": "bool",
              "name": "sold",
              "type": "bool"
            },
            {
              "internalType": "bool",
              "name": "active",
              "type": "bool"
            }
          ],
          "internalType": "struct NFTMarketplace.MarketItem[]",
          "name": "",
          "type": "tuple[]"
        }
      ],
      "stateMutability": "view",
      "type": "function"
    },
    {
      "inputs": [],
      "name": "fetchMyNFTs",
      "outputs": [
        {
          "internalType": "uint256[]",
          "name": "",
          "type": "uint256[]"
        }
      ],
      "stateMutability": "view",
      "type": "function"
    },
    {
      "inputs": [
        {
          "internalType": "uint256",
          "name": "tokenId",
          "type": "uint256"
        }
      ],
      "name": "getApproved",
      "outputs": [
        {
          "internalType": "address",
          "name": "",
          "type": "address"
        }
      ],
      "stateMutability": "view",
      "type": "function"
    },
    {
      "inputs": [
        {
          "internalType": "address",
          "name": "owner",
          "type": "address"
        },
        {
          "internalType": "address",
          "name": "operator",
          "type": "address"
        }
      ],
      "name": "isApprovedForAll",
      "outputs": [
        {
          "internalType": "bool",
          "name": "",
          "type": "bool"
        }
      ],
      "stateMutability": "view",
      "type": "function"
    },
    {
      "inputs": [
        {
          "internalType": "uint256",
          "name": "tokenId",
          "type": "uint256"
        },
        {
          "internalType": "uint256",
          "name": "price",
          "type": "uint256"
        }
      ],
      "name": "listNFT",
      "outputs": [],
      "stateMutability": "payable",
      "type": "function"
    },
    {
      "inputs": [],
      "name": "listingPrice",
      "outputs": [
        {
          "internalType": "uint256",
          "name": "",
          "type": "uint256"
        }
      ],
      "stateMutability": "view",
      "type": "function"
    },
    {
      "inputs": [
        {
          "internalType": "string",
          "name": "tokenURI",
          "type": "string"
        }
      ],
      "name": "mintNFT",
      "outputs": [
        {
          "internalType": "uint256",
          "name": "",
          "type": "uint256"
        }
      ],
      "stateMutability": "nonpayable",
      "type": "function"
    },
    {
      "inputs": [],
      "name": "name",
      "outputs": [
        {
          "internalType": "string",
          "name": "",
          "type": "string"
        }
      ],
      "stateMutability": "view",
      "type": "function"
    },
    {
      "inputs": [],
      "name": "owner",
      "outputs": [
        {
          "internalType": "address",
          "name": "",
          "type": "address"
        }
      ],
      "stateMutability": "view",
      "type": "function"
    },
    {
      "inputs": [
        {
          "internalType": "uint256",
          "name": "tokenId",
          "type": "uint256"
        }
      ],
      "name": "ownerOf",
      "outputs": [
        {
          "internalType": "address",
          "name": "",
          "type": "address"
        }
      ],
      "stateMutability": "view",
      "type": "function"
    },
    {
      "inputs": [],
      "name": "renounceMarketplaceOwnership",
      "outputs": [],
      "stateMutability": "nonpayable",
      "type": "function"
    },
    {
      "inputs": [],
      "name": "renounceOwnership",
      "outputs": [],
      "stateMutability": "nonpayable",
      "type": "function"
    },
    {
      "inputs": [
        {
          "internalType": "uint256",
          "name": "tokenId",
          "type": "uint256"
        },
        {
          "internalType": "uint256",
          "name": "price",
          "type": "uint256"
        }
      ],
      "name": "resellToken",
      "outputs": [],
      "stateMutability": "payable",
      "type": "function"
    },
    {
      "inputs": [
        {
          "internalType": "address",
          "name": "from",
          "type": "address"
        },
        {
          "internalType": "address",
          "name": "to",
          "type": "address"
        },
        {
          "internalType": "uint256",
          "name": "tokenId",
          "type": "uint256"
        }
      ],
      "name": "safeTransferFrom",
      "outputs": [],
      "stateMutability": "nonpayable",
      "type": "function"
    },
    {
      "inputs": [
        {
          "internalType": "address",
          "name": "from",
          "type": "address"
        },
        {
          "internalType": "address",
          "name": "to",
          "type": "address"
        },
        {
          "internalType": "uint256",
          "name": "tokenId",
          "type": "uint256"
        },
        {
          "internalType": "bytes",
          "name": "data",
          "type": "bytes"
        }
      ],
      "name": "safeTransferFrom",
      "outputs": [],
      "stateMutability": "nonpayable",
      "type": "function"
    },
    {
      "inputs": [
        {
          "internalType": "address",
          "name": "operator",
          "type": "address"
        },
        {
          "internalType": "bool",
          "name": "approved",
          "type": "bool"
        }
      ],
      "name": "setApprovalForAll",
      "outputs": [],
      "stateMutability": "nonpayable",
      "type": "function"
    },
    {
      "inputs": [
        {
          "internalType": "bytes4",
          "name": "interfaceId",
          "type": "bytes4"
        }
      ],
      "name": "supportsInterface",
      "outputs": [
        {
          "internalType": "bool",
          "name": "",
          "type": "bool"
        }
      ],
      "stateMutability": "view",
      "type": "function"
    },
    {
      "inputs": [],
      "name": "symbol",
      "outputs": [
        {
          "internalType": "string",
          "name": "",
          "type": "string"
        }
      ],
      "stateMutability": "view",
      "type": "function"
    },
    {
      "inputs": [
        {
          "internalType": "uint256",
          "name": "tokenId",
          "type": "uint256"
        }
      ],
      "name": "tokenURI",
      "outputs": [
        {
          "internalType": "string",
          "name": "",
          "type": "string"
        }
      ],
      "stateMutability": "view",
      "type": "function"
    },
    {
      "inputs": [
        {
          "internalType": "address",
          "name": "from",
          "type": "address"
        },
        {
          "internalType": "address",
          "name": "to",
          "type": "address"
        },
        {
          "internalType": "uint256",
          "name": "tokenId",
          "type": "uint256"
        }
      ],
      "name": "transferFrom",
      "outputs": [],
      "stateMutability": "nonpayable",
      "type": "function"
    },
    {
      "inputs": [
        {
          "internalType": "address",
          "name": "newOwner",
          "type": "address"
        }
      ],
      "name": "transferMarketplaceOwnership",
      "outputs": [],
      "stateMutability": "nonpayable",
      "type": "function"
    },
    {
      "inputs": [
        {
          "internalType": "address",
          "name": "newOwner",
          "type": "address"
        }
      ],
      "name": "transferOwnership",
      "outputs": [],
      "stateMutability": "nonpayable",
      "type": "function"
    },
    {
      "inputs": [
        {
          "internalType": "uint256",
          "name": "_listingPrice",
          "type": "uint256"
        }
      ],
      "name": "updateListingPrice",
      "outputs": [],
      "stateMutability": "nonpayable",
      "type": "function"
    }
  ],
  "bytecode": "0x60806040526658d15e17628000600b553480156200001c57600080fd5b506040518060400160405280601081526020016f4d657461766572736520546f6b656e7360801b815250604051806040016040528060048152602001631351551560e21b815250816000908162000074919062000195565b50600162000083828262000195565b505060016007555062000096336200009c565b62000261565b600880546001600160a01b038381166001600160a01b0319831681179093556040519116919082907f8be0079c531659141344cd1fd0a4f28419497f9722a3daafe3b4186f6b6457e090600090a35050565b634e487b7160e01b600052604160045260246000fd5b600181811c908216806200011957607f821691505b6020821081036200013a57634e487b7160e01b600052602260045260246000fd5b50919050565b601f82111562000190576000816000526020600020601f850160051c810160208610156200016b5750805b601f850160051c820191505b818110156200018c5782815560010162000177565b5050505b505050565b81516001600160401b03811115620001b157620001b1620000ee565b620001c981620001c2845462000104565b8462000140565b602080601f831160018114620002015760008415620001e85750858301515b600019600386901b1c1916600185901b1785556200018c565b600085815260208120601f198616915b82811015620002325788860151825594840194600190910190840162000211565b5085821015620002515787850151600019600388901b60f8161c191681555b5050505050600190811b01905550565b61262d80620002716000396000f3fe60806040526004361061019c5760003560e01c8063715018a6116100ec578063be9af5361161008a578063e219fc7511610064578063e219fc751461047d578063e985e9c514610490578063f2fde38b146104d9578063fb37e883146104f957600080fd5b8063be9af53614610434578063c78f19f914610447578063c87b56dd1461045d57600080fd5b806395d89b41116100c657806395d89b41146103bf578063a22cb465146103d4578063ae677aa3146103f4578063b88d4fde1461041457600080fd5b8063715018a6146103795780638da5cb5b1461038e57806394383f14146103ac57600080fd5b806323b872dd116101595780636352211e116101335780636352211e146102e9578063661bd089146103095780637063b64e1461031e57806370a082311461034b57600080fd5b806323b872dd1461029457806342842e0e146102b457806345f8fa80146102d457600080fd5b806301ffc9a7146101a157806306fdde03146101d6578063081812fc146101f8578063095ea7b3146102305780631206dc5f14610252578063202e374014610272575b600080fd5b3480156101ad57600080fd5b506101c16101bc366004611ef1565b610519565b60405190151581526020015b60405180910390f35b3480156101e257600080fd5b506101eb610544565b6040516101cd9190611f5e565b34801561020457600080fd5b50610218610213366004611f71565b6105d6565b6040516001600160a01b0390911681526020016101cd565b34801561023c57600080fd5b5061025061024b366004611fa6565b6105fd565b005b34801561025e57600080fd5b5061025061026d366004611fd0565b610717565b34801561027e57600080fd5b5061028761072b565b6040516101cd9190611feb565b3480156102a057600080fd5b506102506102af36600461202f565b61078b565b3480156102c057600080fd5b506102506102cf36600461202f565b6107bc565b3480156102e057600080fd5b506102876107d7565b3480156102f557600080fd5b50610218610304366004611f71565b610836565b34801561031557600080fd5b50610250610896565b34801561032a57600080fd5b5061033e61033936600461206b565b6108a8565b6040516101cd919061208d565b34801561035757600080fd5b5061036b610366366004611fd0565b610add565b6040519081526020016101cd565b34801561038557600080fd5b50610250610b63565b34801561039a57600080fd5b506008546001600160a01b0316610218565b6102506103ba36600461206b565b610b75565b3480156103cb57600080fd5b506101eb610d97565b3480156103e057600080fd5b506102506103ef366004612115565b610da6565b34801561040057600080fd5b5061025061040f366004611f71565b610db1565b34801561042057600080fd5b5061025061042f3660046121dd565b610dbe565b610250610442366004611f71565b610df6565b34801561045357600080fd5b5061036b600b5481565b34801561046957600080fd5b506101eb610478366004611f71565b6110bd565b61025061048b36600461206b565b6111cd565b34801561049c57600080fd5b506101c16104ab366004612259565b6001600160a01b03918216600090815260056020908152604080832093909416825291909152205460ff1690565b3480156104e557600080fd5b506102506104f4366004611fd0565b61137a565b34801561050557600080fd5b5061036b61051436600461228c565b6113f0565b60006001600160e01b03198216632483248360e11b148061053e575061053e82611449565b92915050565b606060008054610553906122d5565b80601f016020809104026020016040519081016040528092919081815260200182805461057f906122d5565b80156105cc5780601f106105a1576101008083540402835291602001916105cc565b820191906000526020600020905b8154815290600101906020018083116105af57829003601f168201915b5050505050905090565b60006105e182611499565b506000908152600460205260409020546001600160a01b031690565b600061060882610836565b9050806001600160a01b0316836001600160a01b03160361067a5760405162461bcd60e51b815260206004820152602160248201527f4552433732313a20617070726f76616c20746f2063757272656e74206f776e656044820152603960f91b60648201526084015b60405180910390fd5b336001600160a01b0382161480610696575061069681336104ab565b6107085760405162461bcd60e51b815260206004820152603d60248201527f4552433732313a20617070726f76652063616c6c6572206973206e6f7420746f60448201527f6b656e206f776e6572206f7220617070726f76656420666f7220616c6c0000006064820152608401610671565b61071283836114f8565b505050565b61071f611566565b6107288161137a565b50565b336000908152600d60209081526040918290208054835181840281018401909452808452606093928301828280156105cc57602002820191906000526020600020905b81548152602001906001019080831161076e575050505050905090565b61079533826115c0565b6107b15760405162461bcd60e51b81526004016106719061230f565b61071283838361163e565b61071283838360405180602001604052806000815250610dbe565b336000908152600e60209081526040918290208054835181840281018401909452808452606093928301828280156105cc576020028201919060005260206000209081548152602001906001019080831161076e575050505050905090565b6000818152600260205260408120546001600160a01b03168061053e5760405162461bcd60e51b8152602060048201526018602482015277115490cdcc8c4e881a5b9d985b1a59081d1bdad95b88125160421b6044820152606401610671565b61089e611566565b6108a6610b63565b565b606060006108b560095490565b9050600060015b828111610920576000818152600c6020526040902060040154610100900460ff1680156108fb57506000818152600c602052604090206004015460ff16155b1561090e578161090a81612372565b9250505b8061091881612372565b9150506108bc565b5060008161092e878761238b565b116109425761093d868661238b565b610944565b815b90506000610952868361239e565b67ffffffffffffffff81111561096a5761096a612151565b6040519080825280602002602001820160405280156109ca57816020015b6040805160c08101825260008082526020808301829052928201819052606082018190526080820181905260a082015282526000199092019101816109885790505b5090506000806109db88600161238b565b90505b838111610ad0576000818152600c6020526040902060040154610100900460ff168015610a1d57506000818152600c602052604090206004015460ff16155b15610abe576000818152600c6020908152604091829020825160c0810184528154815260018201546001600160a01b03908116938201939093526002820154909216928201929092526003820154606082015260049091015460ff8082161515608084015261010090910416151560a08201528351849084908110610aa457610aa46123b1565b60200260200101819052508180610aba90612372565b9250505b80610ac881612372565b9150506109de565b5090979650505050505050565b60006001600160a01b038216610b475760405162461bcd60e51b815260206004820152602960248201527f4552433732313a2061646472657373207a65726f206973206e6f7420612076616044820152683634b21037bbb732b960b91b6064820152608401610671565b506001600160a01b031660009081526003602052604090205490565b610b6b611566565b6108a660006117a2565b610b7d6117f4565b33610b8783610836565b6001600160a01b031614610bdd5760405162461bcd60e51b815260206004820152601f60248201527f596f75206d757374206f776e20746865204e465420746f206c697374206974006044820152606401610671565b60008111610c2d5760405162461bcd60e51b815260206004820152601f60248201527f5072696365206d7573742062652067726561746572207468616e207a65726f006044820152606401610671565b600b543414610c795760405162461bcd60e51b81526020600482015260186024820152774d7573742070617920746865206c697374696e672066656560401b6044820152606401610671565b6040805160c0810182528381523360208083018281523084860181815260608601888152600060808801818152600160a08a018181528d8452600c89528b84209a518b5596518a820180546001600160a01b03199081166001600160a01b0393841617909155955160028c01805490971691161790945591516003890155905160049097018054945161ffff1990951697151561ff001916979097176101009415159490940293909317909555838252600e835294812080549485018155815220909101849055610d4a918461163e565b60408051828152600060208201523091339185917fb640004f1d14576d0c209e240cad0410e0d8c0c33a09375861fbadae2588a98d910160405180910390a4610d936001600755565b5050565b606060018054610553906122d5565b610d9333838361184d565b610db9611566565b600b55565b610dc833836115c0565b610de45760405162461bcd60e51b81526004016106719061230f565b610df08484848461191b565b50505050565b610dfe6117f4565b6000818152600c6020526040902060038101543414610e5f5760405162461bcd60e51b815260206004820152601860248201527f4d757374207061792074686520657861637420707269636500000000000000006044820152606401610671565b600481015460ff1615610ea85760405162461bcd60e51b8152602060048201526011602482015270125d195b48185b1c9958591e481cdbdb19607a1b6044820152606401610671565b6004810154610100900460ff16610f015760405162461bcd60e51b815260206004820152601b60248201527f4974656d206973206e6f206c6f6e67657220617661696c61626c6500000000006044820152606401610671565b600180820180546002840180546001600160a01b0319908116331790915560048501805461ffff191690941790935591821690556001600160a01b0316610f4c600a80546001019055565b610f5730338561163e565b6000610f6b6008546001600160a01b031690565b6001600160a01b0316600b5460405160006040518083038185875af1925050503d8060008114610fb7576040519150601f19603f3d011682016040523d82523d6000602084013e610fbc565b606091505b505090506000826001600160a01b0316600b5434610fda919061239e565b604051600081818185875af1925050503d8060008114611016576040519150601f19603f3d011682016040523d82523d6000602084013e61101b565b606091505b505090508180156110295750805b6110675760405162461bcd60e51b815260206004820152600f60248201526e151c985b9cd9995c8819985a5b1959608a1b6044820152606401610671565b336001600160a01b0316857f79705a7faf0849ec33d9f436aa88d50146d23806527cf13010abf315cbfe760086600301546040516110a791815260200190565b60405180910390a3505050506107286001600755565b60606110c882611499565b600082815260066020526040812080546110e1906122d5565b80601f016020809104026020016040519081016040528092919081815260200182805461110d906122d5565b801561115a5780601f1061112f5761010080835404028352916020019161115a565b820191906000526020600020905b81548152906001019060200180831161113d57829003601f168201915b50505050509050600061117860408051602081019091526000815290565b9050805160000361118a575092915050565b8151156111bc5780826040516020016111a49291906123c7565b60405160208183030381529060405292505050919050565b6111c58461194e565b949350505050565b6111d56117f4565b336111df83610836565b6001600160a01b03161461123f5760405162461bcd60e51b815260206004820152602160248201527f596f75206d757374206f776e20746865204e465420746f20726573656c6c20696044820152601d60fa1b6064820152608401610671565b600b54341461128b5760405162461bcd60e51b81526020600482015260186024820152774d7573742070617920746865206c697374696e672066656560401b6044820152606401610671565b600081116112db5760405162461bcd60e51b815260206004820152601f60248201527f5072696365206d7573742062652067726561746572207468616e207a65726f006044820152606401610671565b6000828152600c602052604090206001810180546001600160a01b031990811633179091556002820180549091163017905560038101829055600401805461ffff191661010017905561132e600a6119c2565b61133933308461163e565b604051818152339083907fb2ba12d2566848b13548a3741edb565b69d3cbce7796959cd67431610207eb139060200160405180910390a3610d936001600755565b611382611566565b6001600160a01b0381166113e75760405162461bcd60e51b815260206004820152602660248201527f4f776e61626c653a206e6577206f776e657220697320746865207a65726f206160448201526564647265737360d01b6064820152608401610671565b610728816117a2565b6000611400600980546001019055565b600061140b60095490565b90506114173382611a19565b6114218184611ba4565b336000908152600d602090815260408220805460018101825590835291200181905592915050565b60006001600160e01b031982166380ac58cd60e01b148061147a57506001600160e01b03198216635b5e139f60e01b145b8061053e57506301ffc9a760e01b6001600160e01b031983161461053e565b6000818152600260205260409020546001600160a01b03166107285760405162461bcd60e51b8152602060048201526018602482015277115490cdcc8c4e881a5b9d985b1a59081d1bdad95b88125160421b6044820152606401610671565b600081815260046020526040902080546001600160a01b0319166001600160a01b038416908117909155819061152d82610836565b6001600160a01b03167f8c5be1e5ebec7d5bd14f71427d1e84f3dd0314c0f7b2291e5b200ac8c7c3b92560405160405180910390a45050565b6008546001600160a01b031633146108a65760405162461bcd60e51b815260206004820181905260248201527f4f776e61626c653a2063616c6c6572206973206e6f7420746865206f776e65726044820152606401610671565b6000806115cc83610836565b9050806001600160a01b0316846001600160a01b0316148061161357506001600160a01b0380821660009081526005602090815260408083209388168352929052205460ff165b806111c55750836001600160a01b031661162c846105d6565b6001600160a01b031614949350505050565b826001600160a01b031661165182610836565b6001600160a01b0316146116775760405162461bcd60e51b8152600401610671906123f6565b6001600160a01b0382166116d95760405162461bcd60e51b8152602060048201526024808201527f4552433732313a207472616e7366657220746f20746865207a65726f206164646044820152637265737360e01b6064820152608401610671565b826001600160a01b03166116ec82610836565b6001600160a01b0316146117125760405162461bcd60e51b8152600401610671906123f6565b600081815260046020908152604080832080546001600160a01b03199081169091556001600160a01b0387811680865260038552838620805460001901905590871680865283862080546001019055868652600290945282852080549092168417909155905184937fddf252ad1be2c89b69c2b068fc378daa952ba7f163c4a11628f55a4df523b3ef91a4505050565b600880546001600160a01b038381166001600160a01b0319831681179093556040519116919082907f8be0079c531659141344cd1fd0a4f28419497f9722a3daafe3b4186f6b6457e090600090a35050565b6002600754036118465760405162461bcd60e51b815260206004820152601f60248201527f5265656e7472616e637947756172643a207265656e7472616e742063616c6c006044820152606401610671565b6002600755565b816001600160a01b0316836001600160a01b0316036118ae5760405162461bcd60e51b815260206004820152601960248201527f4552433732313a20617070726f766520746f2063616c6c6572000000000000006044820152606401610671565b6001600160a01b03838116600081815260056020908152604080832094871680845294825291829020805460ff191686151590811790915591519182527f17307eab39ab6107e8899845ad3d59bd9653f200f220920489ca2b5937696c31910160405180910390a3505050565b61192684848461163e565b61193284848484611c6f565b610df05760405162461bcd60e51b81526004016106719061243b565b606061195982611499565b600061197060408051602081019091526000815290565b9050600081511161199057604051806020016040528060008152506119bb565b8061199a84611d70565b6040516020016119ab9291906123c7565b6040516020818303038152906040525b9392505050565b805480611a115760405162461bcd60e51b815260206004820152601b60248201527f436f756e7465723a2064656372656d656e74206f766572666c6f7700000000006044820152606401610671565b600019019055565b6001600160a01b038216611a6f5760405162461bcd60e51b815260206004820181905260248201527f4552433732313a206d696e7420746f20746865207a65726f20616464726573736044820152606401610671565b6000818152600260205260409020546001600160a01b031615611ad45760405162461bcd60e51b815260206004820152601c60248201527f4552433732313a20746f6b656e20616c7265616479206d696e746564000000006044820152606401610671565b6000818152600260205260409020546001600160a01b031615611b395760405162461bcd60e51b815260206004820152601c60248201527f4552433732313a20746f6b656e20616c7265616479206d696e746564000000006044820152606401610671565b6001600160a01b038216600081815260036020908152604080832080546001019055848352600290915280822080546001600160a01b0319168417905551839291907fddf252ad1be2c89b69c2b068fc378daa952ba7f163c4a11628f55a4df523b3ef908290a45050565b6000828152600260205260409020546001600160a01b0316611c1f5760405162461bcd60e51b815260206004820152602e60248201527f45524337323155524953746f726167653a2055524920736574206f66206e6f6e60448201526d32bc34b9ba32b73a103a37b5b2b760911b6064820152608401610671565b6000828152600660205260409020611c3782826124dd565b506040518281527ff8e1a15aba9398e019f0b49df1a4fde98ee17ae345cb5f6b5e2c27f5033e8ce79060200160405180910390a15050565b60006001600160a01b0384163b15611d6557604051630a85bd0160e11b81526001600160a01b0385169063150b7a0290611cb390339089908890889060040161259d565b6020604051808303816000875af1925050508015611cee575060408051601f3d908101601f19168201909252611ceb918101906125da565b60015b611d4b573d808015611d1c576040519150601f19603f3d011682016040523d82523d6000602084013e611d21565b606091505b508051600003611d435760405162461bcd60e51b81526004016106719061243b565b805181602001fd5b6001600160e01b031916630a85bd0160e11b1490506111c5565b506001949350505050565b60606000611d7d83611e03565b600101905060008167ffffffffffffffff811115611d9d57611d9d612151565b6040519080825280601f01601f191660200182016040528015611dc7576020820181803683370190505b5090508181016020015b600019016f181899199a1a9b1b9c1cb0b131b232b360811b600a86061a8153600a8504945084611dd157509392505050565b60008072184f03e93ff9f4daa797ed6e38ed64bf6a1f0160401b8310611e425772184f03e93ff9f4daa797ed6e38ed64bf6a1f0160401b830492506040015b6d04ee2d6d415b85acef81000000008310611e6e576d04ee2d6d415b85acef8100000000830492506020015b662386f26fc100008310611e8c57662386f26fc10000830492506010015b6305f5e1008310611ea4576305f5e100830492506008015b6127108310611eb857612710830492506004015b60648310611eca576064830492506002015b600a831061053e5760010192915050565b6001600160e01b03198116811461072857600080fd5b600060208284031215611f0357600080fd5b81356119bb81611edb565b60005b83811015611f29578181015183820152602001611f11565b50506000910152565b60008151808452611f4a816020860160208601611f0e565b601f01601f19169290920160200192915050565b6020815260006119bb6020830184611f32565b600060208284031215611f8357600080fd5b5035919050565b80356001600160a01b0381168114611fa157600080fd5b919050565b60008060408385031215611fb957600080fd5b611fc283611f8a565b946020939093013593505050565b600060208284031215611fe257600080fd5b6119bb82611f8a565b6020808252825182820181905260009190848201906040850190845b8181101561202357835183529284019291840191600101612007565b50909695505050505050565b60008060006060848603121561204457600080fd5b61204d84611f8a565b925061205b60208501611f8a565b9150604084013590509250925092565b6000806040838503121561207e57600080fd5b50508035926020909101359150565b602080825282518282018190526000919060409081850190868401855b8281101561210857815180518552868101516001600160a01b03908116888701528682015116868601526060808201519086015260808082015115159086015260a09081015115159085015260c090930192908501906001016120aa565b5091979650505050505050565b6000806040838503121561212857600080fd5b61213183611f8a565b91506020830135801515811461214657600080fd5b809150509250929050565b634e487b7160e01b600052604160045260246000fd5b600067ffffffffffffffff8084111561218257612182612151565b604051601f8501601f19908116603f011681019082821181831017156121aa576121aa612151565b816040528093508581528686860111156121c357600080fd5b858560208301376000602087830101525050509392505050565b600080600080608085870312156121f357600080fd5b6121fc85611f8a565b935061220a60208601611f8a565b925060408501359150606085013567ffffffffffffffff81111561222d57600080fd5b8501601f8101871361223e57600080fd5b61224d87823560208401612167565b91505092959194509250565b6000806040838503121561226c57600080fd5b61227583611f8a565b915061228360208401611f8a565b90509250929050565b60006020828403121561229e57600080fd5b813567ffffffffffffffff8111156122b557600080fd5b8201601f810184136122c657600080fd5b6111c584823560208401612167565b600181811c908216806122e957607f821691505b60208210810361230957634e487b7160e01b600052602260045260246000fd5b50919050565b6020808252602d908201527f4552433732313a2063616c6c6572206973206e6f7420746f6b656e206f776e6560408201526c1c881bdc88185c1c1c9bdd9959609a1b606082015260800190565b634e487b7160e01b600052601160045260246000fd5b6000600182016123845761238461235c565b5060010190565b8082018082111561053e5761053e61235c565b8181038181111561053e5761053e61235c565b634e487b7160e01b600052603260045260246000fd5b600083516123d9818460208801611f0e565b8351908301906123ed818360208801611f0e565b01949350505050565b60208082526025908201527f4552433732313a207472616e736665722066726f6d20696e636f72726563742060408201526437bbb732b960d91b606082015260800190565b60208082526032908201527f4552433732313a207472616e7366657220746f206e6f6e20455243373231526560408201527131b2b4bb32b91034b6b83632b6b2b73a32b960711b606082015260800190565b601f821115610712576000816000526020600020601f850160051c810160208610156124b65750805b601f850160051c820191505b818110156124d5578281556001016124c2565b505050505050565b815167ffffffffffffffff8111156124f7576124f7612151565b61250b8161250584546122d5565b8461248d565b602080601f83116001811461254057600084156125285750858301515b600019600386901b1c1916600185901b1785556124d5565b600085815260208120601f198616915b8281101561256f57888601518255948401946001909101908401612550565b508582101561258d5787850151600019600388901b60f8161c191681555b5050505050600190811b01905550565b6001600160a01b03858116825284166020820152604081018390526080606082018190526000906125d090830184611f32565b9695505050505050565b6000602082840312156125ec57600080fd5b81516119bb81611edb56fea26469706673582212207c61a39a4524a3380c713ecde33583cc0c99b65f7acea009d782b898cf041bd164736f6c63430008180033",
  "linkReferences": {},
  "deployedLinkReferences": {}
}